:020000040800F2
:1000000000000220090E0008250D00082B0D000835
:10001000310D0008370D00083D0D000800000000FC
:10002000000000000000000000000000430D000878
:10003000510D0008000000005F0D00086D0D000864
:10004000590E0008590E0008590E0008590E0008F4
:10005000590E0008590E0008590E0008590E0008E4
:10006000590E0008590E0008590E0008590E0008D4
:10007000590E0008590E0008590E0008590E0008C4
:10008000590E0008590E0008590E0008590E0008B4
:10009000590E0008590E0008590E0008590E0008A4
:1000A000590E0008590E0008590E0008590E000894
:1000B000590E0008590E0008590E0008590E000884
:1000C000590E0008590E0008590E0008590E000874
:1000D000590E0008590E0008590E0008590E000864
:1000E000590E0008590E0008590E0008590E000854
:1000F000590E0008590E0008590E0008590E000844
:10010000590E0008590E0008590E0008590E000833
:10011000590E0008590E0008590E0008590E000823
:10012000590E0008590E0008590E0008590E000813
:10013000590E0008590E0008590E0008590E000803
:10014000590E0008590E0008590E0008590E0008F3
:10015000590E0008590E0008590E0008590E0008E3
:10016000590E0008590E0008590E0008590E0008D3
:10017000590E0008590E0008590E00080000000032
:08018000590E0008590E000899
:1001900010B5054C237833B9044B13B10448AFF3C1
:1001A00000800123237010BD7000002000000000BB
:1001B000B837000808B5034B1BB103490348AFF338
:1001C000008008BD0000000074000020B83700085F
:1001D00001F0FF01102A2BDB10F0070F08D010F8F8
:1001E000013B013A8B422DD010F0070F42B3F6D1FC
:1001F000F0B441EA012141EA014122F007047FF015
:1002000000070023F0E80256083C85EA010586EA6B
:10021000010685FA47F5A3FA87F586FA47F6A5FAA7
:1002200087F68EB9EED1F0BC01F0FF0102F00702B3
:1002300032B110F8013B013A83EA010313B1F8D15E
:100240000020704701387047002D06BF354603383F
:10025000073815F0010F07D1013015F4807F02BF78
:10026000013015F4C03F0130F0BC0138704700BFC9
:1002700053B94AB9002908BF00281CBF4FF0FF310D
:100280004FF0FF3000F074B9ADF1080C6DE904CE09
:1002900000F006F8DDF804E0DDE9022304B0704761
:1002A0002DE9F047089D04468E46002B4DD18A4229
:1002B000944669D9B2FA82F252B101FA02F3C2F15C
:1002C000200120FA01F10CFA02FC41EA030E9440ED
:1002D0004FEA1C48210CBEFBF8F61FFA8CF708FB0E
:1002E00016E341EA034306FB07F199420AD91CEBE6
:1002F000030306F1FF3080F01F81994240F21C8118
:10030000023E63445B1AA4B2B3FBF8F008FB10335F
:1003100044EA034400FB07F7A7420AD91CEB040494
:1003200000F1FF3380F00A81A74240F20781644464
:10033000023840EA0640E41B00261DB1D4400023E9
:10034000C5E900433146BDE8F0878B4209D9002D4D
:1003500000F0EF800026C5E9000130463146BDE8D7
:10036000F087B3FA83F6002E4AD18B4202D3824241
:1003700000F2F980841A61EB030301209E46002DF0
:10038000E0D0C5E9004EDDE702B9FFDEB2FA82F245
:10039000002A40F09280A1EB0C014FEA1C471FFAA3
:1003A0008CFE0126200CB1FBF7F307FB131140EA8A
:1003B00001410EFB03F0884208D91CEB010103F157
:1003C000FF3802D2884200F2CB804346091AA4B219
:1003D000B1FBF7F007FB101144EA01440EFB00FEED
:1003E000A64508D91CEB040400F1FF3102D2A64552
:1003F00000F2BB800846A4EB0E0440EA03409CE7F1
:10040000C6F12007B34022FA07FC4CEA030C20FA9D
:1004100007F401FA06F31C43F9404FEA1C4900FABD
:1004200006F3B1FBF9F8200C1FFA8CFE09FB18113A
:1004300040EA014108FB0EF0884202FA06F20BD9AD
:100440001CEB010108F1FF3A80F08880884240F2FD
:100450008580A8F102086144091AA4B2B1FBF9F041
:1004600009FB101144EA014100FB0EFE8E4508D93C
:100470001CEB010100F1FF346CD28E456AD90238C1
:10048000614440EA0840A0FB0294A1EB0E01A142A6
:10049000C846A64656D353D05DB1B3EB080261EB14
:1004A0000E0101FA07F722FA06F3F1401F43C5E9EE
:1004B000007100263146BDE8F087C2F12003D84024
:1004C0000CFA02FC21FA03F3914001434FEA1C4766
:1004D0001FFA8CFEB3FBF7F007FB10360B0C43EA58
:1004E000064300FB0EF69E4204FA02F408D91CEB08
:1004F000030300F1FF382FD29E422DD90238634406
:100500009B1B89B2B3FBF7F607FB163341EA0341A5
:1005100006FB0EF38B4208D91CEB010106F1FF38F4
:1005200016D28B4214D9023E6144C91A46EA0046EB
:1005300038E72E46284605E70646E3E61846F8E67D
:100540004B45A9D2B9EB020864EB0C0E0138A3E7C6
:100550004646EAE7204694E74046D1E7D0467BE7A7
:10056000023B614432E7304609E76444023842E71F
:10057000704700BF80B483B000AF78600B4B1B683E
:100580000B4AA2FB03235B0D7A6802FB03F37B603B
:1005900000BF7B685A1E7A60002BFAD100BF00BFF3
:1005A0000C37BD465DF8047B704700BF000000209B
:1005B0006BCA5F6B80B584B002AF0346FB71084A1B
:1005C000FB7913704FF47A7300930123044A4E2190
:1005D000044801F09BF900BF0837BD4680BD00BF4D
:1005E0008C000020B800002080B582B000AF034628
:1005F000FB71FB791B01FB71144B1B7843F0040367
:10060000DAB2124B1A70114B1B781846FFF7D2FF63
:100610003220FFF7AFFF0D4B1A78FB791343DBB2A3
:100620001846FFF7C7FF094B1B7823F00403DAB223
:10063000064B1A70054B1B781846FFF7BBFF32209C
:10064000FFF798FF00BF0837BD4680BD8D00002032
:1006500080B584B000AF03460A46FB711346BB71F8
:10066000BB79002B0CD1154B1B7823F00103DAB2B8
:10067000124B1A70114B1B781846FFF79BFF0BE0CB
:100680000E4B1B7843F00103DAB20C4B1A700B4B84
:100690001B781846FFF78EFF0023FB73FB791B09BD
:1006A000FB73FB7B1846FFF79FFFFB791846FFF7AC
:1006B0009BFF00BF1037BD4680BD00BF8D000020EE
:1006C00080B584B000AF78600023FB730AE0FB7B49
:1006D0007A6813441B7801211846FFF7B9FFFB7BAA
:1006E0000133FB73FB7B7A6813441B78002BEED13C
:1006F00000BF00BF1037BD4680BD000080B500AF11
:100700000F2000F01DFC0320FFF76EFF042000F017
:1007100017FC0320FFF768FF6420FFF72BFF03207F
:10072000FFF762FF012000F00BFC0220FFF75CFFE7
:10073000012000F005FC00212820FFF789FF01209F
:1007400000F0FEFB00210C20FFF782FF012000F0EB
:10075000F7FB00210120FFF77BFF022000F0F0FBF8
:1007600000210620FFF774FF012000F0E9FB0D4B8C
:100770001B7843F00803DAB20A4B1A70094B1B7856
:100780001846FFF717FF074B1B7823F00203DAB276
:10079000044B1A70034B1B781846FFF70BFF00BF82
:1007A00080BD00BF8D00002080B59AB000AF00F082
:1007B00055FB00F019F800F037F900F0B3F800F03D
:1007C0007BF800F0DDF800F005F9FFF797FF3B1D1F
:1007D0000449184602F082FB3B1D1846FFF770FFE4
:1007E000FEE700BFD037000880B594B000AF07F136
:1007F000200330220021184602F068FB07F10C03A9
:1008000000221A605A609A60DA601A610023BB60A5
:10081000274B1B6C264A43F080531364244B1B6CFC
:1008200003F08053BB60BB6800237B60214B1B68D7
:10083000204A43F4804313601E4B1B6803F480433B
:100840007B607B6801233B624FF480337B62022331
:10085000BB634FF48003FB6306233B64C0237B64CC
:100860000223BB640423FB6407F12003184601F054
:1008700055FB0346002B01D000F01AF90F23FB6053
:1008800002233B6190237B610023BB610023FB615A
:1008900007F10C030121184601F0B8FD0346002BB7
:1008A00001D000F005F900BF5037BD4680BD00BF44
:1008B000003802400070004080B500AF174B184A66
:1008C0001A60164B08225A60144B00229A60134B90
:1008D0000022DA60114B4FF4A0221A610F4B002264
:1008E0005A610E4B00221A760C4B00225A760B4BA3
:1008F00000229A76094B0022DA76084B00221A77FA
:10090000064B00225A77054800F03EFB0346002BB9
:1009100001D000F0CDF800BF80BD00BF90000020E6
:100920000064004080B500AF124B134A1A60114BAF
:10093000124A5A600F4B00229A600E4B0022DA6076
:100940000C4B4FF480421A610A4B00225A61094B4A
:1009500000229A61074B0022DA61064B00221A62DC
:10096000044800F08FFE0346002B01D000F0A0F8F1
:1009700000BF80BDB800002000540040801A06006F
:1009800080B500AF114B124A1A60104B4FF4E132A0
:100990005A600E4B00229A600C4B0022DA600B4B1F
:1009A00000221A61094B0C225A61084B00229A61FD
:1009B000064B0022DA61054801F095FF0346002B43
:1009C00001D000F075F800BF80BD00BF0C01002011
:1009D0000010014080B500AF114B124A1A60104B55
:1009E0004FF4E1325A600E4B00229A600C4B002209
:1009F000DA600B4B00221A61094B0C225A61084B3A
:100A000000229A61064B0022DA61054801F01EFFC0
:100A10000346002B01D000F04BF800BF80BD00BFA3
:100A2000500100200044004080B485B000AF002396
:100A3000FB601E4B1B6B1D4A43F0800313631B4B73
:100A40001B6B03F08003FB60FB680023BB60174B4C
:100A50001B6B164A43F001031363144B1B6B03F02B
:100A60000103BB60BB6800237B60104B1B6B0F4A0C
:100A700043F0080313630D4B1B6B03F008037B600B
:100A80007B6800233B60094B1B6B084A43F0020361
:100A90001363064B1B6B03F002033B603B6800BF14
:100AA0001437BD465DF8047B704700BF0038024034
:100AB00080B400AF72B600BFFEE7000080B483B020
:100AC00000AF00237B60104B5B6C0F4A43F4804304
:100AD00053640D4B5B6C03F480437B607B680023A5
:100AE0003B60094B1B6C084A43F080531364064B70
:100AF0001B6C03F080533B603B6800BF0C37BD4666
:100B00005DF8047B704700BF0038024080B58AB0B2
:100B100000AF786007F1140300221A605A609A60EF
:100B2000DA601A617B681B68194A93422BD1002353
:100B30003B61184B1B6C174A43F000731364154B51
:100B40001B6C03F000733B613B690023FB60114B9E
:100B50001B6B104A43F0080313630E4B1B6B03F02F
:100B60000803FB60FB6803237B610223BB61002356
:100B7000FB6103233B6209237B6207F114031946DF
:100B8000054800F0E3FB00BF2837BD4680BD00BF2D
:100B90000064004000380240000C024080B58AB07A
:100BA00000AF786007F1140300221A605A609A605F
:100BB000DA601A617B681B68194A93422BD10023C3
:100BC0003B61184B1B6B174A43F002031363154B31
:100BD0001B6B03F002033B613B69C0237B61122363
:100BE000BB610023FB6103233B6204237B6207F1AB
:100BF000140319460C4800F0A9FB0023FB60094BC5
:100C00001B6C084A43F400131364064B1B6C03F47B
:100C10000013FB60FB6800BF2837BD4680BD00BFE6
:100C200000540040003802400004024080B58CB0FF
:100C300000AF786007F11C0300221A605A609A60C6
:100C4000DA601A617B681B68324A93422DD1002317
:100C5000BB61314B5B6C304A43F0100353642E4B45
:100C60005B6C03F01003BB61BB6900237B612A4B03
:100C70001B6B294A43F001031363274B1B6B03F0E3
:100C800001037B617B694FF40073FB6112233B62BC
:100C900000237B620323BB620723FB6207F11C0373
:100CA00019461E4800F052FB30E07B681B681C4A66
:100CB00093422BD100233B61174B1B6C164A43F424
:100CC00000331364144B1B6C03F400333B613B692A
:100CD0000023FB60104B1B6B0F4A43F001031363AF
:100CE0000D4B1B6B03F00103FB60FB680C23FB61E6
:100CF00002233B6200237B620323BB620723FB6268
:100D000007F11C031946054800F020FB00BF3037EF
:100D1000BD4680BD00100140003802400000024086
:100D20000044004080B400AFFEE780B400AFFEE7AF
:100D300080B400AFFEE780B400AFFEE780B400AF40
:100D4000FEE780B400AF00BFBD465DF8047B70478E
:100D500080B400AF00BFBD465DF8047B704780B42F
:100D600000AF00BFBD465DF8047B704780B500AFA3
:100D700000F0C6F800BF80BD80B586B000AF7860D7
:100D8000144A154BD31A7B617B693B61134B1B687B
:100D9000002B02D1114B124A1A60104B1A687B6863
:100DA00013443A699A4207D202F066F803460C22CD
:100DB0001A604FF0FF3309E0084B1B68FB60074BDC
:100DC0001A687B681344054A1360FB681846183795
:100DD000BD4680BD000002200004000094010020F8
:100DE000B001002080B400AF064BD3F88830054A2C
:100DF00043F47003C2F8883000BFBD465DF8047B41
:100E0000704700BF00ED00E0DFF834D00D480E4918
:100E10000E4A002302E0D458C4500433C4188C4254
:100E2000F9D30B4A0B4C002301E013600432A242B9
:100E3000FBD3FFF7D7FF02F025F8FFF7B5FC7047AB
:100E40000000022000000020700000204038000850
:100E500070000020AC010020FEE7000080B500AF6C
:100E60000E4B1B680D4A43F4007313600B4B1B6859
:100E70000A4A43F480631360084B1B68074A43F433
:100E800080731360032000F02DFA0F2000F008F8A3
:100E9000FFF714FE0023184680BD00BF003C02404F
:100EA00080B582B000AF7860124B1A68124B1B7885
:100EB00019464FF47A73B3FBF1F3B2FBF3F3184620
:100EC00000F037FA0346002B01D001230EE07B68C7
:100ED0000F2B0AD8002279684FF0FF3000F00DFA8E
:100EE000064A7B681360002300E001231846083798
:100EF000BD4680BD00000020080000200400002046
:100F000080B400AF064B1B781A46064B1B6813448F
:100F1000044A136000BFBD465DF8047B704700BF04
:100F2000080000209801002080B400AF034B1B682C
:100F30001846BD465DF8047B704700BF980100204D
:100F400080B584B000AF7860FFF7EEFFB8607B68D3
:100F5000FB60FB68B3F1FF3F05D00A4B1B781A46D4
:100F6000FB681344FB6000BFFFF7DEFF0246BB686F
:100F7000D31AFA689A42F7D800BF00BF1037BD46AF
:100F800080BD00BF0800002080B584B000AF78604D
:100F90007B68002B01D10123EDE07B6893F82030C2
:100FA000DBB2002B02D17868FFF7B0FD7B681B68CD
:100FB0001A687B681B6842F001021A60FFF7B4FFF1
:100FC000F86012E0FFF7B0FF0246FB68D31A0A2B65
:100FD0000BD97B685B6A43F400327B685A627B689A
:100FE000052283F820200123C5E07B681B685B682D
:100FF00003F00103002BE5D07B681B681A687B684F
:101000001B6822F002021A60FFF78EFFF86012E000
:10101000FFF78AFF0246FB68D31A0A2B0BD97B68BD
:101020005B6A43F400327B685A627B68052283F86E
:10103000202001239FE07B681B685B6803F00203AC
:10104000002BE5D17B681B7E012B08D17B681B68D8
:101050001A687B681B6842F080021A6007E07B68B0
:101060001B681A687B681B6822F080021A607B6824
:101070005B7E012B08D17B681B681A687B681B6844
:1010800042F040021A6007E07B681B681A687B68C0
:101090001B6822F040021A607B689B7E012B08D1FE
:1010A0007B681B681A687B681B6842F020021A6024
:1010B00007E07B681B681A687B681B6822F02002C7
:1010C0001A607B68DB7E012B08D17B681B681A687D
:1010D0007B681B6822F010021A6007E07B681B68BF
:1010E0001A687B681B6842F010021A607B681B7FDD
:1010F000012B08D17B681B681A687B681B6842F06B
:1011000008021A6007E07B681B681A687B681B6826
:1011100022F008021A607B685B7F012B08D17B6894
:101120001B681A687B681B6842F004021A6007E0BB
:101130007B681B681A687B681B6822F004021A60CF
:101140007B689A687B68DB681A437B681B691A4373
:101150007B685B6942EA03017B685B685A1E7B68B7
:101160001B680A43DA617B6800225A627B680122AD
:1011700083F82020002318461037BD4680BD0000AC
:1011800080B485B000AF78607B6803F00703FB6034
:101190000C4BDB68BB60BA684FF6FF031340BB60C3
:1011A000FB681A02BB68134343F0BF6343F4003388
:1011B000BB60044ABB68D36000BF1437BD465DF80E
:1011C000047B704700ED00E080B400AF044BDB68A7
:1011D0001B0A03F007031846BD465DF8047B704701
:1011E00000ED00E080B483B000AF03463960FB71CE
:1011F00097F90730002B0ADB3B68DAB20C4997F904
:1012000007301201D2B20B4483F800230AE03B6896
:10121000DAB20849FB7903F00F03043B1201D2B2A2
:101220000B441A7600BF0C37BD465DF8047B70474F
:1012300000E100E000ED00E080B489B000AFF860AC
:10124000B9607A60FB6803F00703FB61FB69C3F1D7
:101250000703042B28BF0423BB61FB690433062B5F
:1012600002D9FB69033B00E000237B614FF0FF32B2
:10127000BB6902FA03F3DA43BB681A407B699A4000
:101280004FF0FF317B6901FA03F3D9437B680B40D0
:10129000134318462437BD465DF8047B70470000B1
:1012A00080B582B000AF78607B68013BB3F1807F8E
:1012B00001D301230FE00A4A7B68013B53600F21F1
:1012C0004FF0FF30FFF78EFF054B00229A60044B72
:1012D00007221A60002318460837BD4680BD00BFAC
:1012E00010E000E080B582B000AF78607868FFF76A
:1012F00047FF00BF0837BD4680BD80B586B000AF50
:101300000346B9607A60FB7300237B61FFF75CFFE3
:1013100078617A68B9687869FFF78EFF024697F9B5
:101320000F3011461846FFF75DFF00BF1837BD4666
:1013300080BD80B582B000AF78607868FFF7B0FFFD
:10134000034618460837BD4680BD000080B489B00A
:1013500000AF7860396000237B6100233B6100238C
:10136000BB610023FB616BE10122FB6902FA03F31D
:101370007B613B681B687A6913403B613A697B6912
:101380009A4240F05A813B685B6803F00303012BEB
:1013900005D03B685B6803F00303022B30D17B6808
:1013A0009B68BB61FB695B00032202FA03F3DB432A
:1013B000BA691340BB613B68DA68FB695B0002FAFB
:1013C00003F3BA691343BB617B68BA699A607B68AF
:1013D0005B68BB610122FB6902FA03F3DB43BA6974
:1013E0001340BB613B685B681B0903F00102FB69AA
:1013F00002FA03F3BA691343BB617B68BA695A60A6
:101400003B685B6803F00303032B17D07B68DB6842
:10141000BB61FB695B00032202FA03F3DB43BA6999
:101420001340BB613B689A68FB695B0002FA03F3F7
:10143000BA691343BB617B68BA69DA603B685B6871
:1014400003F00303022B23D1FB69DA087B6808321F
:1014500053F82230BB61FB6903F007039B000F22A6
:1014600002FA03F3DB43BA691340BB613B681A69B4
:10147000FB6903F007039B0002FA03F3BA69134305
:10148000BB61FB69DA087B680832B96943F822104E
:101490007B681B68BB61FB695B00032202FA03F3F4
:1014A000DB43BA691340BB613B685B6803F003022E
:1014B000FB695B0002FA03F3BA691343BB617B6803
:1014C000BA691A603B685B6803F44033002B00F094
:1014D000B4800023FB60604B5B6C5F4A43F4804345
:1014E00053645D4B5B6C03F48043FB60FB685B4AB9
:1014F000FB699B08023352F82330BB61FB6903F0A0
:1015000003039B000F2202FA03F3DB43BA69134083
:10151000BB617B68524A93422BD07B68514A93420D
:1015200025D07B68504A93421FD07B684F4A934234
:1015300019D07B684E4A934213D07B684D4A934240
:101540000DD07B684C4A934207D07B684B4A93424C
:1015500001D107230EE008230CE006230AE005234F
:1015600008E0042306E0032304E0022302E0012351
:1015700000E00023FA6902F0030292009340BA6986
:101580001343BB613549FB699B080233BA6941F8D3
:1015900023203B4B9B68BB613B69DB43BA6913402B
:1015A000BB613B685B6803F48013002B03D0BA690E
:1015B0003B691343BB61324ABB699360304BDB68C4
:1015C000BB613B69DB43BA691340BB613B685B6845
:1015D00003F40013002B03D0BA693B691343BB61CA
:1015E000274ABB69D360264B5B68BB613B69DB4321
:1015F000BA691340BB613B685B6803F40033002B9E
:1016000003D0BA693B691343BB611D4ABB69536090
:101610001B4B1B68BB613B69DB43BA691340BB6171
:101620003B685B6803F48033002B03D0BA693B69E5
:101630001343BB61124ABB691360FB690133FB6151
:10164000FB690F2B7FF690AE00BF00BF2437BD466D
:101650005DF8047B704700BF00380240003801404D
:10166000000002400004024000080240000C02405A
:10167000001002400014024000180240001C02400A
:10168000003C014080B584B000AF78607B68002BDF
:1016900001D101232BE17B6893F83D30DBB2002BB5
:1016A00006D17B68002283F83C207868FFF776FA41
:1016B0007B68242283F83D207B681B681A687B685E
:1016C0001B6822F001021A607B681B681A687B683D
:1016D0001B6842F400421A607B681B681A687B68CA
:1016E0001B6822F400421A6001F088F8F8607B68F9
:1016F0005B68814A934207D8FB68804A934294BF53
:1017000001230023DBB206E0FB687D4A934294BFCD
:1017100001230023DBB2002B01D00123E7E0FB68AB
:10172000784AA2FB03239B0CBB607B681B685B6849
:1017300023F03F017B681B68BA680A435A607B68E4
:101740001B681B6A23F03F017B685B686A4A93420F
:1017500002D8BB68013309E0BB684FF4967202FB04
:1017600003F3694AA2FB03239B0901337A681268D9
:101770000B4313627B681B68DB6923F44F4222F042
:10178000FF027B685B685C498B4219D8FB68591E75
:101790007B685B685B00B1FBF3F3591C40F6FC739C
:1017A0000B40002B0AD0FB68591E7B685B685B000E
:1017B000B1FBF3F30133C3F30B0351E004234FE018
:1017C0007B689B68002B11D1FB68581E7B685968A9
:1017D0000B465B000B44B0FBF3F30133C3F30B0385
:1017E000002B0CBF01230023DBB212E0FB68581E64
:1017F0007B6859680B469B000B4499000B44B0FB77
:10180000F3F30133C3F30B03002B0CBF01230023BD
:10181000DBB2002B01D0012322E07B689B68002B08
:101820000ED1FB68581E7B6859680B465B000B4461
:10183000B0FBF3F30133C3F30B0343F400430FE0B6
:10184000FB68581E7B6859680B469B000B44990047
:101850000B44B0FBF3F30133C3F30B0343F44043F6
:10186000796809681343CB617B681B681B6823F0A8
:10187000C0017B68DA697B681B6A1A437B681B6856
:101880000A431A607B681B689B6823F4034323F0B8
:10189000FF037A6811697A68D26811437A6812681E
:1018A0000B4393607B681B68DB6823F0FF017B6858
:1018B0005A697B689B691A437B681B680A43DA6034
:1018C0007B681B681A687B681B6842F001021A601B
:1018D0007B6800221A647B68202283F83D207B68A5
:1018E00000221A637B68002283F83E2000231846FA
:1018F0001037BD4680BD00BFA08601007F841E005A
:10190000FF083D0083DE1B43D34D621080B588B0D5
:1019100002AFF8607A601A460B467B8113463B8122
:10192000FFF702FB7861FB6893F83D30DBB2202BB8
:1019300040F0E0807B690093192301227049F86828
:1019400000F064F90346002B01D00223D3E0FB68CA
:1019500093F83C30012B01D10223CCE0FB6801223B
:1019600083F83C20FB681B681B6803F00103012B14
:1019700007D0FB681B681A68FB681B6842F001020D
:101980001A60FB681B681A68FB681B6822F4006217
:101990001A60FB68212283F83D20FB68102283F83F
:1019A0003E20FB6800221A64FB687A685A62FB6872
:1019B0003A895A85FB685B8D9AB2FB681A85FB6889
:1019C000504ADA6279897B693A6AF86800F09CF8D3
:1019D0000346002B01D001238DE000233B61FB680F
:1019E0001B685B693B61FB681B689B693B613B69EA
:1019F00066E07A69396AF86800F0DEF90346002B80
:101A00000DD0FB681B6C042B07D1FB681B681A68A0
:101A1000FB681B6842F400721A6001236BE0FB68EC
:101A20005B6A1A78FB681B681A61FB685B6A5A1C60
:101A3000FB685A62FB685B8D9BB2013B9AB2FB6804
:101A40005A85FB681B8D013B9AB2FB681A85FB68BF
:101A50001B685B6903F00403042B1BD1FB681B8D1F
:101A6000002B17D0FB685B6A1A78FB681B681A6149
:101A7000FB685B6A5A1CFB685A62FB685B8D9BB211
:101A8000013B9AB2FB685A85FB681B8D013B9AB2F9
:101A9000FB681A857A69396AF86800F0CEF903465E
:101AA000002B0DD0FB681B6C042B07D1FB681B6857
:101AB0001A68FB681B6842F400721A6001231AE07E
:101AC000FB681B8D002B94D1FB681B681A68FB68B0
:101AD0001B6842F400721A60FB68202283F83D20E4
:101AE000FB68002283F83E20FB68002283F83C203C
:101AF000002300E0022318461837BD4680BD00BF12
:101B0000020010000000FFFF80B588B002AFF8604F
:101B10007A603B600B467B81FB68DB6A7B617B699B
:101B2000082B06D07B69012B03D07B6913F5803F1E
:101B300008D1FB681B681A68FB681B6842F4807256
:101B40001A600BE0FB681B6B122B07D1FB681B684C
:101B50001A68FB681B6842F480721A603B68009345
:101B60007B6800224FF00111F86800F04FF803463F
:101B7000002B0DD0FB681B681B6803F48073B3F562
:101B8000807F03D1FB684FF400721A64032335E0B1
:101B9000FB681B69B3F5804F08D17B89DBB21A461D
:101BA000FB681B6802F0FE021A611BE07B89DB11F7
:101BB000DBB203F00603DBB263F00F03DAB2FB68BB
:101BC0001B681A613B687A680E49F86800F075F87E
:101BD0000346002B01D0012310E07B89DAB2FB68B9
:101BE0001B681A613B687A680749F86800F065F875
:101BF0000346002B01D0012300E0002318461837CC
:101C0000BD4680BD080001000200010080B584B01F
:101C100000AFF860B9603B601346FB7125E03B689C
:101C2000B3F1FF3F21D0FFF77FF90246BB69D31A1A
:101C30003A689A4202D33B68002B16D1FB68002217
:101C40001A63FB68202283F83D20FB68002283F89A
:101C50003E20FB681B6C43F02002FB681A64FB68A3
:101C6000002283F83C20012323E0BB681B0CDBB27D
:101C7000012B0DD1FB681B685B69DA43BB6813401D
:101C80009BB2002B0CBF01230023DBB21A460CE0F1
:101C9000FB681B689B69DA43BB6813409BB2002B4F
:101CA0000CBF01230023DBB21A46FB799A42B6D05F
:101CB000002318461037BD4680BD80B584B000AF04
:101CC000F860B9607A603B6051E0FB681B685B6953
:101CD00003F48063B3F5806F23D1FB681B681A6837
:101CE000FB681B6842F400721A60FB681B686FF4A3
:101CF00080625A61FB6800221A63FB68202283F825
:101D00003D20FB68002283F83E20FB681B6C43F0FB
:101D10000402FB681A64FB68002283F83C2001235C
:101D200046E07B68B3F1FF3F21D0FFF7FDF80246A4
:101D30003B68D31A7A689A4202D37B68002B16D18B
:101D4000FB6800221A63FB68202283F83D20FB68B1
:101D5000002283F83E20FB681B6C43F02002FB68E6
:101D60001A64FB68002283F83C20012320E0BB6852
:101D70001B0CDBB2012B0CD1FB681B685B69DA43DF
:101D8000BB6813409BB2002B14BF01230023DBB2BE
:101D90000BE0FB681B689B69DA43BB6813409BB28E
:101DA000002B14BF01230023DBB2002B8DD10023B5
:101DB00018461037BD4680BD80B584B000AFF860CE
:101DC000B9607A602DE0F86800F078F80346002BDF
:101DD00001D001232DE0BB68B3F1FF3F21D0FFF715
:101DE000A3F802467B68D31ABA689A4202D3BB684A
:101DF000002B16D1FB6800221A63FB68202283F8AF
:101E00003D20FB68002283F83E20FB681B6C43F0FA
:101E10002002FB681A64FB68002283F83C2001233F
:101E200007E0FB681B685B6903F08003802BCAD165
:101E3000002318461037BD4680BD80B584B000AF82
:101E4000F860B9607A602DE0F86800F037F8034672
:101E5000002B01D001232DE0BB68B3F1FF3F21D05F
:101E6000FFF762F802467B68D31ABA689A4202D337
:101E7000BB68002B16D1FB6800221A63FB68202286
:101E800083F83D20FB68002283F83E20FB681B6C32
:101E900043F02002FB681A64FB68002283F83C20B0
:101EA000012307E0FB681B685B6903F00403042B54
:101EB000CAD1002318461037BD4680BD80B483B018
:101EC00000AF78607B681B685B6903F48063B3F5DF
:101ED000806F1BD17B681B686FF480625A617B68DE
:101EE00000221A637B68202283F83D207B68002251
:101EF00083F83E207B681B6C43F004027B681A6405
:101F00007B68002283F83C20012300E00023184670
:101F10000C37BD465DF8047B7047000080B586B085
:101F200000AF78607B68002B01D1012367E27B68FA
:101F30001B6803F00103002B75D0884B9B6803F0EE
:101F40000C03042B0CD0854B9B6803F00C03082B6F
:101F500012D1824B5B6803F48003B3F5800F0BD181
:101F60007E4B1B6803F40033002B5BD07B685B68FF
:101F7000002B57D1012342E27B685B68B3F5803FB9
:101F800006D1764B1B68754A43F4803313601DE01D
:101F90007B685B68B3F5A02F0CD1704B1B686F4A50
:101FA00043F4802313606D4B1B686C4A43F4803309
:101FB00013600BE0694B1B68684A23F4803313609D
:101FC000664B1B68654A23F4802313607B685B685B
:101FD000002B13D0FEF7A8FF386108E0FEF7A4FF3E
:101FE00002463B69D31A642B01D9032307E25B4BFA
:101FF0001B6803F40033002BF0D014E0FEF794FFCD
:10200000386108E0FEF790FF02463B69D31A642B63
:1020100001D90323F3E1514B1B6803F40033002B78
:10202000F0D100E000BF7B681B6803F00203002BC7
:1020300063D04A4B9B6803F00C03002B0BD0474B3B
:102040009B6803F00C03082B1CD1444B5B6803F422
:102050008003002B16D1414B1B6803F00203002BB9
:1020600005D07B68DB68012B01D00123C7E13B4B26
:102070001B6823F0F8027B681B69DB0037491343B8
:102080000B603AE07B68DB68002B20D0344B0122E8
:102090001A60FEF749FF386108E0FEF745FF024687
:1020A0003B69D31A022B01D90323A8E12B4B1B68F0
:1020B00003F00203002BF0D0284B1B6823F0F8023A
:1020C0007B681B69DB00254913430B6015E0244B3B
:1020D00000221A60FEF728FF386108E0FEF724FFAF
:1020E00002463B69D31A022B01D9032387E11B4B1C
:1020F0001B6803F00203002BF0D17B681B6803F020
:102100000803002B36D07B685B69002B16D0154B7B
:1021100001221A60FEF708FF386108E0FEF704FFAD
:1021200002463B69D31A022B01D9032367E10B4B0B
:102130005B6F03F00203002BF0D01BE0094B002281
:102140001A60FEF7F1FE38610EE0FEF7EDFE024682
:102150003B69D31A022B07D9032350E10038024010
:1021600000004742800E4742884B5B6F03F002033A
:10217000002BEAD17B681B6803F00403002B00F0FE
:1021800097800023FB75814B1B6C03F08053002B61
:102190000FD10023BB607D4B1B6C7C4A43F0805306
:1021A00013647A4B1B6C03F08053BB60BB68012344
:1021B000FB75774B1B6803F48073002B18D1744BAD
:1021C0001B68734A43F480731360FEF7ADFE3861F9
:1021D00008E0FEF7A9FE02463B69D31A022B01D99B
:1021E00003230CE16A4B1B6803F48073002BF0D0CF
:1021F0007B689B68012B06D1644B1B6F634A43F0DD
:10220000010313671CE07B689B68052B0CD15F4BB7
:102210001B6F5E4A43F0040313675C4B1B6F5B4A02
:1022200043F0010313670BE0584B1B6F574A23F031
:1022300001031367554B1B6F544A23F004031367C4
:102240007B689B68002B15D0FEF76EFE38610AE0B4
:10225000FEF76AFE02463B69D31A41F28832934286
:1022600001D90323CBE0494B1B6F03F00203002B82
:10227000EED014E0FEF758FE38610AE0FEF754FE97
:1022800002463B69D31A41F28832934201D90323B3
:10229000B5E03E4B1B6F03F00203002BEED1FB7D3C
:1022A000012B05D1394B1B6C384A23F08053136442
:1022B0007B689B69002B00F0A180344B9B6803F086
:1022C0000C03082B5CD07B689B69022B41D1314BFE
:1022D00000221A60FEF728FE386108E0FEF724FEAF
:1022E00002463B69D31A022B01D9032387E0274B0F
:1022F0001B6803F00073002BF0D17B68DA697B6800
:102300001B6A1A437B685B6A9B011A437B689B6A62
:102310005B08013B1B041A437B68DB6A1B061B49F5
:1023200013434B601B4B01221A60FEF7FDFD386121
:1023300008E0FEF7F9FD02463B69D31A022B01D9EA
:1023400003235CE0114B1B6803F00073002BF0D0FB
:1023500054E0104B00221A60FEF7E6FD386108E0F9
:10236000FEF7E2FD02463B69D31A022B01D9032393
:1023700045E0064B1B6803F00073002BF0D13DE0F5
:102380007B689B69012B07D1012338E000380240AC
:1023900000700040600047421B4B5B68FB607B683D
:1023A0009B69012B28D0FB6803F480027B68DB6902
:1023B0009A4221D1FB6803F03F027B681B6A9A4274
:1023C0001AD1FA6847F6C07313407A68526A9201CC
:1023D000934211D1FB6803F440327B689B6A5B082F
:1023E000013B1B049A4207D1FB6803F070627B68D3
:1023F000DB6A1B069A4201D0012300E00023184645
:102400001837BD4680BD00BF0038024080B584B09B
:1024100000AF786039607B68002B01D10123CCE0EC
:10242000684B1B6803F007033A689A420CD9654B66
:102430003A68D2B21A70634B1B6803F007033A681C
:102440009A4201D00123B8E07B681B6803F00203C5
:10245000002B20D07B681B6803F00403002B05D001
:10246000594B9B68584A43F4E05393607B681B6860
:1024700003F00803002B05D0534B9B68524A43F4EA
:1024800060439360504B9B6823F0F0027B689B682D
:102490004D4913438B607B681B6803F00103002BDD
:1024A00044D07B685B68012B07D1474B1B6803F462
:1024B0000033002B19D101237FE07B685B68022B7E
:1024C00003D07B685B68032B07D13F4B1B6803F08D
:1024D0000073002B09D101236FE03B4B1B6803F015
:1024E0000203002B01D1012367E0374B9B6823F0E7
:1024F00003027B685B68344913438B60FEF714FD6D
:10250000F8600AE0FEF710FD0246FB68D31A41F2BC
:102510008832934201D903234FE02B4B9B6803F091
:102520000C027B685B689B009A42EBD1254B1B68D1
:1025300003F007033A689A420CD2224B3A68D2B2AF
:102540001A70204B1B6803F007033A689A4201D0C7
:10255000012332E07B681B6803F00403002B08D0E2
:10256000194B9B6823F4E0527B68DB6816491343E0
:102570008B607B681B6803F00803002B09D0124BAB
:102580009B6823F460427B681B69DB000E491343A0
:102590008B6000F021F802460B4B9B681B0903F08F
:1025A0000F030A49CB5C22FA03F3094A1360094B73
:1025B0001B681846FEF774FC002318461037BD460A
:1025C00080BD00BF003C024000380240E4370008F4
:1025D00000000020040000202DE9B04F94B000AFAF
:1025E00000237B640023FB6400233B640023BB6463
:1025F000794B9B6803F00C03082B0DD0082B00F2DD
:10260000E180002B02D0042B03D0DBE0734BBB64D2
:10261000DBE0734BBB64D8E06F4B5B6803F03F03B8
:102620007B646D4B5B6803F48003002B63D06A4BC3
:102630005B689B090022BB63FA63BB6BC3F30803AF
:102640003B6300237B63D7E90C4522462B464FF0C2
:1026500000004FF00001590141EAD26150010246E9
:102660000B462146511A3961294663EB01037B6110
:102670004FF000024FF00003D7E904AB59468B013D
:10268000514643EA916351468A015146B2EB010833
:10269000594663EB01094FF000024FF000034FEA87
:1026A000C90343EA58734FEAC80290469946234645
:1026B00018EB0303BB602B4649EB0303FB604FF0B1
:1026C00000024FF00003D7E9024529464B0221469C
:1026D00043EAD15321464A02104619467B6C002238
:1026E000BB62FA62D7E90A23FDF7C2FD02460B4638
:1026F0001346FB6458E0384B5B689B090022184680
:102700001146C0F308033B6200237B62D7E90889C6
:1027100042464B464FF000004FF00001590141EA9C
:10272000D261500102460B464146B2EB010A4946CE
:1027300063EB010B4FF000024FF000034FEA8B13E5
:1027400043EA9A634FEA8A12B2EB0A0463EB0B0581
:102750004FF000024FF00003EB0043EA5473E20035
:1027600014461D464346E3183B604B4645EB0303C6
:102770007B604FF000024FF00003D7E90045294687
:102780008B02214643EA915321468A02104619469C
:102790007B6C0022BB61FA61D7E90623FDF768FD77
:1027A00002460B461346FB640B4B5B681B0C03F0A5
:1027B000030301335B003B64FA6C3B6CB2FBF3F345
:1027C000BB6402E0054BBB6400BFBB6C18465037CE
:1027D000BD46BDE8B08F00BF003802400024F400C1
:1027E00000127A0080B400AF034B1B681846BD4648
:1027F0005DF8047B704700BF0000002080B500AF8B
:10280000FFF7F0FF0246054B9B689B0A03F00703A6
:102810000349CB5C22FA03F3184680BD003802401E
:10282000F437000880B500AFFFF7DCFF0246054B28
:102830009B685B0B03F007030349CB5C22FA03F3AD
:10284000184680BD00380240F437000880B582B0D9
:1028500000AF78607B68002B01D101233FE07B68EB
:1028600093F83D30DBB2002B06D17B68002283F861
:102870003C207868FEF7DAF97B68242283F83D2053
:102880007B681B68DA687B681B6822F40052DA6098
:10289000786800F07DF87B681B681A697B681B68A4
:1028A00022F490421A617B681B685A697B681B6836
:1028B00022F02A025A617B681B68DA687B681B6811
:1028C00042F40052DA607B6800221A647B6820229E
:1028D00083F83D207B68202283F83E2000231846A1
:1028E0000837BD4680BD80B582B000AF78607B6898
:1028F000002B01D1012347E07B6893F83D30DBB228
:10290000002B06D17B68002283F83C207868FEF714
:102910008DF97B68242283F83D207B681B68DA6888
:102920007B681B6822F40052DA60786800F030F8A7
:102930007B681B681A697B681B6822F490421A61E5
:102940007B681B685A697B681B6822F022025A6107
:102950007B681B685A697B681B6842F008025A61F1
:102960007B681B68DA687B681B6842F40052DA6097
:102970007B6800221A647B68202283F83D207B68F4
:10298000202283F83E20002318460837BD4680BD2C
:102990002DE9B04FC0B000AFC7F8F400D7F8F4305D
:1029A0001B681B6923F44050D7F8F430D968D7F876
:1029B000F4301A6840EA01031361D7F8F4309A68DA
:1029C000D7F8F4301B691A43D7F8F4305B691A431F
:1029D000D7F8F430DB691343C7F8F830D7F8F43090
:1029E0001B68DB6823F4164121F00C01D7F8F430A2
:1029F0001A68D7F8F8300B43D360D7F8F4301B6867
:102A00005B6923F44070D7F8F4309969D7F8F43053
:102A10001A6840EA01035361D7F8F4301A688F4B03
:102A20009A4205D0D7F8F4301A688D4B9A4204D1F7
:102A3000FFF7F8FEC7F8FC0003E0FFF7DFFEC7F87A
:102A4000FC00D7F8F430DB69B3F5004F40F00C819F
:102A5000D7F8FC300022C7F8E830C7F8EC20D7E9F7
:102A60003A4522462B469118B9655B41FB65D7E98B
:102A70001623214612EB0108294643EB01094FF0CA
:102A800000024FF000034FEAC90343EA58734FEACC
:102A9000C80290469946234618EB0303C7F8E03076
:102AA0002B4649EB0303C7F8E430D7F8F4305B68F2
:102AB0000022C7F8D830C7F8DC20D7E936120B4619
:102AC000DB183B65134642EB03037B65D7E9142310
:102AD000D7E93801FDF7CCFB02460B46614BA3FB5F
:102AE00002235B091C01D7F8FC300022C7F8D03064
:102AF000C7F8D420D7E9348942464B469118B964C7
:102B00005B41FB64D7E91223414612EB010A4946B7
:102B100043EB010B4FF000024FF000034FEACB03F1
:102B200043EA5A734FEACA0292469B4643461AEB5F
:102B30000303C7F8C8304B464BEB0303C7F8CC3050
:102B4000D7F8F4305B680022C7F8C030C7F8C4205B
:102B5000D7E930120B46DB183B64134642EB030304
:102B60007B64D7E91023D7E93201FDF781FB0246E8
:102B70000B4611463B4BA3FB01235B09642202FB7E
:102B800003F3CB1ADB0003F13202364BA3FB022323
:102B90005B095B0003F4F8731C44D7F8FC30002297
:102BA000C7F8B830C7F8BC20D7E92E8942464B4653
:102BB0009118B9635B41FB63D7E90E234146511875
:102BC000396349464B417B634FF000024FF00003ED
:102BD000D7E90CAB5946CB00514643EA51735146F5
:102BE000CA0010461946034642469B18C7F8B03043
:102BF0004B460A4642EB0303C7F8B430D7F8F4302B
:102C00005B680022C7F8A830C7F8AC20D7E92A12C1
:102C10000B46DB18BB62134642EB0303FB62D7E9AA
:102C20000A23D7E92C01FDF723FB02460B460D4B87
:102C3000A3FB02135B09642101FB03F3D31ADB003E
:102C40003233084AA2FB03235B0903F00702D7F8DB
:102C5000F4301B6822449A6005E100BF0010014077
:102C6000001401401F85EB51D7F8FC300022C7F853
:102C7000A030C7F8A420D7E9288942464B469118CE
:102C800039625B417B62D7E90823414654184946C3
:102C900043EB01054FF000024FF00003EB0043EA65
:102CA0005473E20014461D464346E318C7F89830B3
:102CB0004B4645EB0303C7F89C30D7F8F4305B680C
:102CC0000022C7F89030C7F894204FF000024FF070
:102CD0000003D7E9244529468B00214643EA917336
:102CE00021468A00D7E92601FDF7C2FA02460B46C3
:102CF000604BA3FB02235B091C01D7F8FC300022C8
:102D0000C7F88830C7F88C20D7E9228942464B465D
:102D10009118B9615B41FB61D7E90623414651181F
:102D2000396149464B417B614FF000024FF000038F
:102D3000D7E904AB5946CB00514643EA517351469B
:102D4000CA0010461946034642469B18C7F8803011
:102D50004B460A4642EB0303C7F88430D7F8F430F9
:102D60005B680022BB67FA674FF000024FF0000378
:102D7000D7E91E8949468B00414643EA9173414693
:102D80008A00D7E92001FDF773FA02460B46394B5A
:102D9000A3FB02135B09642101FB03F3D31A1B019C
:102DA0003233344AA2FB03235B0903F0F0031C44D3
:102DB000D7F8FC3000223B677A67D7E91C89424686
:102DC0004B469118B9605B41FB60D7E9022341464D
:102DD0005118396049464B417B604FF000024FF07B
:102DE0000003D7E900AB5946CB00514643EA517383
:102DF0005146CA0010461946034642469B18BB6618
:102E00004B460A4642EB0303FB66D7F8F4305B6897
:102E100000223B667A664FF000024FF00003D7E9CC
:102E2000188949468B00414643EA917341468A001E
:102E3000D7E91A01FDF71CFA02460B460D4BA3FB1E
:102E400002135B09642101FB03F3D31A1B01323324
:102E5000084AA2FB03235B0903F00F02D7F8F43002
:102E60001B6822449A6000BF07F58077BD46BDE825
:102E7000B08F00BF1F85EB51014B1868704700BF32
:102E80000C00002070B50D4D0D4C641BA4100026E5
:102E9000A64209D10B4D0C4C00F08EFC641BA41013
:102EA0000026A64205D170BD55F8043B984701366F
:102EB000EEE755F8043B98470136F2E7383800084A
:102EC00038380008383800083C3800080244034607
:102ED000934200D1704703F8011BF9E70EB400B527
:102EE0009CB01DAB029006906FF00041094807911D
:102EF0000491094953F8042B05910068019302A934
:102F000000F068F8029B00221A701CB05DF804EB18
:102F100003B070470C0000200802FFFF2DE9F047C6
:102F20008E689E4282460C4690461F4638D88A8953
:102F300012F4906F32D025680969A5EB0109656923
:102F400005EB450505EBD57501334B446D109D42EE
:102F500038BF1D46530531D5294600F063FB0646B0
:102F600050B90C23CAF80030A38943F04003A38171
:102F70004FF0FF30BDE8F08721694A4600F0BEFA05
:102F8000A38923F4906343F08003A38126616561E4
:102F90004E44A5EB09052660A5603E46BE4200D919
:102FA0003E4620683246414600F0B6FAA3689B1BB5
:102FB000A3602368334423600020DBE72A4600F047
:102FC000A5FB06460028E1D12169504600F0BEFA73
:102FD000C7E700002DE9F04F98468B891B069DB08E
:102FE00007460D4614460ED50B6963B9402100F023
:102FF00019FB2860286120B90C233B604FF0FF309B
:10300000D1E040236B610023099320238DF8293000
:10301000CDF80C803023DFF8A8818DF82A304FF0EE
:10302000010923469A4613F8012B0AB1252AF9D142
:10303000BAEB040B0BD05B46224629463846FFF715
:103040006DFF013000F0AA80099A5A4409929AF85B
:103050000030002B00F0A28000234FF0FF32CDE9BA
:1030600005230AF1010A049307938DF853301A934C
:103070005446052214F8011B5148FDF7A9F8049A9B
:10308000D8B9D00644BF20238DF85330110744BF70
:103090002B238DF853309AF800302A2B15D0079A3D
:1030A000544600204FF00A0C214611F8013B303BFA
:1030B000092B4ED9B0B1079214E0A0EB080309FA2E
:1030C00003F313430493A246D2E7039B191D1B6825
:1030D0000391002BBBBF5B4242F0020207930793B0
:1030E000B8BF049223782E2B0CD163782A2B35D1CC
:1030F000039B1A1D1B680392002BB8BF4FF0FF33D0
:1031000002340593DFF8C8A0217803225046FDF76A
:103110005FF840B14023A0EB0A0003FA00F0049BE3
:1031200003430134049314F8011B26488DF828103A
:103130000622FDF74DF8002838D0234B1BBB039B1C
:10314000073323F0070308330393099B33440993A0
:1031500067E70CFB02320C460120A5E7002301348F
:10316000059319464FF00A0C204610F8012B303A0F
:10317000092A03D9002BC5D00591C3E70CFB012117
:1031800004460123F0E703AB00932A460F4B04A942
:103190003846AFF30080421C0646D6D1AB895B06A9
:1031A0003FF52CAF09981DB0BDE8F08F03AB00933D
:1031B0002A46064B04A9384600F07AF8EBE700BF30
:1031C000FC37000806380008000000001D2F00082A
:1031D000023800082DE9F047164699468A680B69BF
:1031E000DDF820809342B8BF1346336091F8432046
:1031F00007460C460AB1013333602368990642BF83
:10320000336802333360256815F0060506D104F1F2
:10321000190AE36832689B1AAB4226DC94F8432013
:10322000131E226818BF012392062BD404F1430217
:1032300049463846C04701301ED02368E5683268E9
:1032400003F00603042B08BFAD1AA36822690CBF64
:1032500025EAE57500259342C4BF9B1AED180026A8
:103260001A34B5421AD1002008E0012352464946DB
:103270003846C047013003D14FF0FF30BDE8F0873A
:103280000135C6E7E1185A1C302081F8430022447A
:1032900094F8451082F843100233C7E70123224611
:1032A00049463846C0470130E6D00136D9E700002C
:1032B0002DE9FF470F7E0C9D782F914680460C46E6
:1032C0009A4601F1430207D8622F0AD8002F00F076
:1032D000D880582F00F0A38004F1420584F8427092
:1032E0003AE0A7F16303152BF6D801A151F823F0BA
:1032F000493300085D330008D9320008D93200088C
:10330000D9320008D93200085D330008D9320008EC
:10331000D9320008D9320008D932000869340008CF
:103320008D3300084B340008D9320008D932000828
:103330008B340008D93200088D330008D9320008D8
:10334000D9320008533400082B681A1D1B682A6004
:1033500004F1420584F842300123A3E02068296883
:10336000060601F104030AD50E682B60002E03DA6D
:103370002D23764284F843305E480A2319E00E6814
:103380002B6010F0400F18BF36B2EFE72B682068B3
:10339000191D2960010601D51E6802E04606FBD50D
:1033A0001E8854486F2F0CBF08230A23002184F87D
:1033B00043106568A560002DA2BF216821F00401BB
:1033C00021600EB9002D4DD01546B6FBF3F103FB7D
:1033D0001167C75D05F8017D3746BB420E46F4D93B
:1033E000082B0BD12368DE0708D523696168994251
:1033F000DEBF302305F8013C05F1FF35521B226189
:10340000CDF800A04B4603AA21464046FFF7E2FE56
:1034100001304CD14FF0FF3004B0BDE8F0873548A3
:1034200081F845702968236851F8046B29601D06EE
:1034300014D5DF0744BF43F0200323601EB923687F
:1034400023F0200323601023B0E7236843F0200318
:1034500023607823284884F84530E3E7590648BFBD
:10346000B6B2E6E71546BBE72B6826686169181D0A
:10347000286035061B6801D5196002E07006FBD58F
:103480001980002323611546BAE72B681A1D2A60AC
:103490001D68626800212846FCF79AFE08B1401BAF
:1034A000606063682361002384F84330A8E72369E0
:1034B0002A4649464046D0470130ABD023689B0797
:1034C00013D4E068039B9842B8BF1846A4E70123D1
:1034D000324649464046D04701309BD00135E3682B
:1034E00003995B1AAB42F2DCEBE7002504F1190605
:1034F000F5E700BF0D3800081E3800080A44914265
:1035000000F1FF3300D1704710B511F8014B03F8FB
:10351000014F9142F9D110BD884210B501EB020470
:1035200002D98442234607D8431EA14208D011F88D
:10353000012B03F8012FF8E7024401468A4200D12B
:1035400010BD13F8014D02F8014DF7E737B500291A
:1035500044D051F8043C0190002BA1F10404B8BF01
:10356000E41800F013F91E4A0198136833B9636038
:10357000146003B0BDE8304000F00EB9A34208D992
:10358000256861198B4201BF19685B684919216080
:10359000EDE71A465B680BB1A342FAD911685518DA
:1035A000A5420BD1246821445418A3421160E0D1F4
:1035B0001C685B68536021441160DAE702D90C2370
:1035C0000360D6E7256861198B4204BF19685B6800
:1035D000636004BF491921605460CAE703B030BD7D
:1035E0009C01002070B50E4E0C463168054611B99D
:1035F00000F0BCF830602146284600F0B7F8431CC4
:103600000AD0C41C24F00304A04207D0211A284683
:1036100000F0ACF8013001D14FF0FF34204670BD0E
:10362000A00100202DE9F041CD1C25F0030508354F
:103630000C2D38BF0C25002D074601DBA94205D90A
:103640000C233B6000263046BDE8F0812E4E00F092
:103650009DF833681C4634BB29463846FFF7C2FF45
:10366000431C04464DD134682646002E40D12368C1
:103670003146384604EB030800F078F880453AD12B
:10368000216803356D1A25F0030508350C2D38BF68
:103690000C2529463846FFF7A5FF01302BD02368BB
:1036A0002B4423600EE02268521B1ED40B2A16D92D
:1036B0006119A342256018BF5960636808BF316073
:1036C00062514B60384604F10B0600F065F826F0B5
:1036D0000706231DF21AB6D09B1BA350B3E76268FE
:1036E000A3420CBF32605A60ECE723466468B2E73D
:1036F00034467668B9E70C233B60384600F04CF856
:10370000A1E72560DEE700BF9C0100202DE9F04124
:10371000804614460E4621B9BDE8F0411146FFF738
:1037200081BF2AB9FFF712FF25462846BDE8F08180
:1037300000F038F88442074602D8B4EB500F12D894
:1037400021464046FFF76EFF05460028EDD0BC42FB
:103750002246314628BF3A46FFF7D0FE3146404662
:10376000FFF7F4FEE1E73546DFE7000038B5064D28
:103770000023044608462B60FDF7FEFA431C02D1E5
:103780002B6803B1236038BDA4010020014800F07C
:1037900011B800BFA8010020014800F00CB800BF1C
:1037A000A801002051F8043C181F002BBCBF0B5887
:1037B000C018704770477047F8B500BFF8BC08BC28
:1037C0009E467047F8B500BFF8BC08BC9E467047DF
:1037D00050415F434F4E54524F4C5F424F41524411
:1037E00000000000000000000000000001020304CF
:1037F000060708090000000001020304232D302BF6
:103800002000686C4C0065666745464700303132E1
:103810003334353637383941424344454600303138
:103820003233343536373839616263646566000097
:0838300070CAFF7F01000000D7
:04383800B5010008CE
:04383C0091010008EE
:103840000024F4001000000001000000100000201F
:103850000000000000000000000000000000000068
:103860000000000000000000000000000000000058
:103870000000000000000000000000000000000048
:103880000000000000000000000000000000000038
:103890000000000000000000000000000000000028
:1038A0000000000000000000000000000000000018
:0400000508000E09D8
:00000001FF
